:0B0244003F065B4F666D7D077F6F403B
:0B023900D288D2A8D28AD2AAD2AF226B
:0D022B00EFD3940040077EC8DEFE1F80F375
:0102380022A3
:10001600120239AE08AF097C277D101201B47E03A7
:100026007FE8CFCDCFCECCCE1201B474442FF5826B
:1000360074023EF583E493750C00F50DAE08AF0926
:100046007C037DE81201B47E007F64CFCDCFCECC99
:10005600CE1201B474442FF58274023EF583E49304
:10006600750E00F50FAE08AF097C007D641201B471
:100076007E007F0ACFCDCFCECCCE1201B474442FF2
:10008600F58274023EF583E493751000F511AE080F
:10009600AF097C007D0A1201B474442DF582740206
:1000A6003CF583E493751200F513AE0AAF0B7C277B
:1000B6007D101201B47E037FE8CFCDCFCECCCE1219
:1000C60001B474442FF58274023EF583E4937514EB
:1000D60000F515AE0AAF0B7C037DE81201B47E0075
:1000E6007F64CFCDCFCECCCE1201B474442FF5822F
:1000F60074023EF583E493751600F517AE0AAF0B4E
:100106007C007D641201B47E007F0ACFCDCFCECCB9
:10011600CE1201B474442FF58274023EF583E49343
:10012600751800F519AE0AAF0B7C007D0A1201B4F2
:1001360074442DF58274023CF583E493751A00F538
:100146001BE4FDED25E0240CF808E6F580EDB40887
:1001560000504D900160F828287302017802017C56
:1001660002018402018802019002019402019C02AC
:1001760001A0C2A28002D2A2C2A3C2A48022C2A2AD
:100186008002D2A2D2A3C2A48016C2A28002D2A2A8
:10019600C2A3D2A4800AC2A28002D2A2D2A3D2A4AF
:0E01A6007F0512022B0DED64087098020019FF
:03000300020209ED
:10020900C0E0C2A80509E50970020508D2A8D0E036
:0102190032B2
:0300130002021ACC
:10021A00C0E0C2AA050BE50B7002050AD2AAD0E01B
:01022A0032A1
:03000000020006F5
:0C000600787FE4F6D8FD75811B0200161F
:1001B400BC000BBE0029EF8DF084FFADF022E4CC2F
:1001C400F875F008EF2FFFEE33FEEC33FCEE9DECF8
:1001D400984005FCEE9DFE0FD5F0E9E4CEFD22ED3E
:1001E400F8F5F0EE8420D21CFEADF075F008EF2F88
:1001F400FFED33FD4007985006D5F0F222C398FD79
:050204000FD5F0EA2215
:00000001FF
