:1000A4003F065B4F666D7D077F6F777C395E7971A4
:1000B40040FA1AFA6AFB00FB8CFC0EFC4AFCAEFD0B
:1000C40008FD30FD80FDC6FE02FE2AFE5CFE84FEB5
:0100D4009893
:1000F600D3EF9400EE940040147D6E7C00ED1D70ED
:0D010600011CED4C70F7EF1F70E61E80E34A
:0101130022C9
:10000E0075A0FF75A00FE5A0640F70030200A37F1B
:10001E000A7E001200F6E5A0640F607975A00FAF9E
:10002E00A0EF24F5601024FE6011146013240770F5
:10003E0012E4F50A800D750A018008750A02800324
:10004E00750A0375A0F0AFA0EF2450600C24E06099
:10005E000C24F0600C2470800E74048006740880EA
:10006E0002740C250AF50AE50A9000A493F50BE537
:10007E000A25E024B5F582E43400F583E493FC749C
:10008E000193FDECF508AF058F09D28CE5A0B4F015
:06009E00FBC28CD2B72268
:1000D50075A0FF7580FF758901D2AFD2A9750B4058
:1000E50012000EE50BF4F5807F027E001200F6800B
:0100F500EF1B
:03000B00020120CF
:0901200085088C85098AB2B7320A
:03000000020114E6
:0C011400787FE4F6D8FD75810B0200D561
:00000001FF
