:10008A002000000000000004010000000000000839
:10009A000001000000000800000001000008000044
:1000AA000000000108000000000000080100000034
:1000BA000000080000010000000800000000010024
:1000CA00080000000000000110000000000000020B
:10010E007E00D3EF9400EE940040147D6E7C00EDE3
:0F011E001D70011CED4C70F7EF1F70E61E80E3A3
:01012D0022AF
:0E012E00C2B77F0A12010ED2B77F0A02010E7D
:100003008C0A8D0BAB07AA06EA7053EBB4080050B9
:100013004D90001BF82828730200330200370200BA
:100023003F02004302004B02004F02005702005BF5
:10003300C2908002D290C291C2928022C29080026A
:10004300D290D291C2928016C2908002D290C29175
:10005300D292800AC2908002D290D291D292E50BC2
:10006300AE0A7803C333CE33CED8F9248AF582742B
:10007300003EF583E5822BF582E5833AF583E4932D
:07008300F5807F0102010E70
:1000DA00E4F580E4F50875090AAF091509EF601916
:1000EA00E4F9E9C3940850F1E9FF7E00AD087C0009
:1000FA00120003E4F5800980E90508E508C3940ABB
:04010A0040D480CF8E
:0300000002013CBE
:0C013C00787FE4F6D8FD75810B0200DA34
:00000001FF
