:10005000C2A58B807F017E00120079D2A77F057E2A
:1000600000120079C2A7EBC454F0F5807F017E0036
:09007000120079D2A77F057E0081
:10007900D3EF9400EE9400400F7DC77C01DCFEDDD8
:08008900FAEF1F70EB1E80E886
:01009100224C
:0C00CA00AB07C2A7C2A6120050C2A722BA
:0C00D600AB07C2A7D2A6120050C2A7229E
:100092007F321200CA7F281200CA7F0C1200CA7F68
:0E00A200061200CA7F011200CA7F800200CA47
:1000B0002020202043534C47202020200048656CFE
:0A00C0006C6F2057726F6C64210012
:10000300120092E4F5087F901200CAE5089000B050
:1000130093FF60071200D6050880F07FD01200CA54
:10002300E4F508E5089000BD93FF60071200D605CC
:100033000880F0E4F508E508C3941050C67F181251
:0D00430000CA7FF47E01120079050880E9F3
:030000000200E219
:0C00E200787FE4F6D8FD75810802000369
:00000001FF
