:0A0148003F065B4F666D7D077F6F79
:06000300010900010800E4
:0400FA007F057E0000
:1000FE00D3EF9400EE940040147D6E7C00ED1D70E5
:0D010E00011CED4C70F7EF1F70E61E80E342
:01011B0022C1
:1000D300E50875F00A8490014893F58075A07F12B6
:1000E30000FAE50875F00A84E5F093F58075A0BF82
:0700F3001200FA75A0FF22C4
:10011C00758901758C3C758AB0D2AFD2A9D28C226C
:0E012C00C2B71200FAD2B77F057E000200FEB5
:0E013A007580FF75A0FF12011C1200D380FB20
:03000B0002009A56
:10009A00C0E0C0D075D000C004C005C006C0077556
:1000AA008C3C758AB00509E509B414087509001273
:1000BA00012C0508E508B43C03750800D007D006F2
:0900CA00D005D004D0D0D0E03202
:0300000002000EED
:0C000E00787FE4F6D8FD758109020055EA
:10001A0002013AE493A3F8E493A34003F68001F2C1
:10002A0008DFF48029E493A3F85407240CC8C333E7
:10003A00C4540F4420C8834004F456800146F6DFB6
:10004A00E4800B0102040810204080900003E47E43
:10005A00019360BCA3FF543F30E509541FFEE493AB
:10006A00A360010ECF54C025E060A840B8E493A372
:10007A00FAE493A3F8E493A3C8C582C8CAC583CA9D
:10008A00F0A3C8C582C8CAC583CADFE9DEE780BE55
:0100090000F6
:00000001FF
