:10006E003F065B4F666D7D077F6F777C395E7971DA
:0E007E00120003E50890006E93F4F58080F206
:1000030075900FE590640F6061120098E590640F9E
:100013006058AF90EF24F5601024FE601114601354
:1000230024077012E4F508800D750801800875082F
:100033000280037508037590F0AF90EF2430600CD5
:1000430024F0600C2430700E74048006740880025F
:10005300740C2508F508E509C39432500DE5906446
:0A006300F06007120098050980EC18
:01006D002270
:080098007F267E82DEFEDFFA06
:0100A000223D
:0300000002008C6F
:0C008C00787FE4F6D8FD75810902007E43
:00000001FF
