:080078000F0909090909093902
:07008000AE071FEE70FA222B
:10000300E4FDEDB40800504D900012F82828730267
:10001300002A02002E02003602003A0200420200C9
:100023004602004E020052C2A08002D2A0C2A1C268
:10003300A28022C2A08002D2A0D2A1C2A28016C2F4
:10004300A08002D2A0C2A1D2A2800AC2A08002D202
:10005300A0D2A1D2A2ED90007893F5807FE81200A0
:09006300800DED6408709B80978C
:0300000002006C8F
:0C006C00787FE4F6D8FD758107020003E0
:00000001FF
