:10026D003F065B4F666D7D077F6F777C395E7971D9
:01027D004040
:10024C00010917010A3B01082D010B00C100100C1C
:10025C000000000000000000000000000000000092
:04022A007F0A7E00C9
:10022E00D3EF9400EE940040147D6E7C00ED1D70B3
:0D023E00011CED4C70F7EF1F70E61E80E311
:01024B002290
:10000300C2B77F017E0012022ED2B77F017E0002AB
:02001300022EBB
:10011E00EF75F00A84750C00F50DEF75F00A84AFDB
:10012E00F0750E008F0FED75F00A84751200F51341
:10013E00ED75F00A84AFF07514008F15EB75F00AAB
:10014E0084751800F519EB75F00A84AFF0751A0076
:0F015E008F1B7510007511107516007517102284
:1000AA00E4FBEBB40800504D9000B9F8282873021D
:1000BA0000D10200D50200DD0200E10200E90200DF
:1000CA00ED0200F50200F9C2A58002D2A5C2A6C2BD
:1000DA00A78022C2A58002D2A5D2A6C2A78016C234
:1000EA00A58002D2A5C2A6D2A7800AC2A58002D242
:1000FA00A5D2A6D2A7EB25E0240CF808E690026D5B
:10010A0093F5807F017E0012022EE4F5800BEB64EA
:03011A0008708FDB
:01011D0022BF
:10016D00C28E20A11812022A20A11220A105120070
:10017D000380F80509E509B41803E4F50920A21870
:10018D0012022A20A21220A20512000380F8050AED
:10019D00E50AB43C03E4F50A20A31212022A20A3B7
:0E01AD000C20A30512000380F8D28EC200229F
:10027E00758910758DD8758BF0D2AFD2ABD28E2218
:1001FA00E4F58075A0FF12027E1200AA20A0101258
:10020A00022A20A00A20A00512000380F8D200309A
:10021A00000312016DAB08AD0AAF0912011E80D9A5
:03001B000201BB24
:1001BB00C0E0C0D0758DD8758BF0050BE50BC394E3
:1001CB00644027750B000508E508B43C1D050A754E
:1001DB000800E50AB43C130509750A00E509B418D3
:0F01EB0009750900750A00750800D0D0D0E03200
:0300000002001EDD
:0C001E00787FE4F6D8FD758120020065B3
:10002A000201FAE493A3F8E493A34003F68001F2F1
:10003A0008DFF48029E493A3F85407240CC8C333D7
:10004A00C4540F4420C8834004F456800146F6DFA6
:10005A00E4800B010204081020408090024CE47EE8
:10006A00019360BCA3FF543F30E509541FFEE4939B
:10007A00A360010ECF54C025E060A840B8E493A362
:10008A00FAE493A3F8E493A3C8C582C8CAC583CA8D
:10009A00F0A3C8C582C8CAC583CADFE9DEE780BE45
:01026C000091
:00000001FF
