:0A00CE003F065B4F666D7D077F6FF4
:0300EE0001080501
:0700E000D2A8D2AFC28822B2
:0700E700AE071FEE70FA22C4
:0800D8007580921200E080FE29
:0300030002009266
:10009200C0E0C083C082C0D075D000C006C0077F58
:1000A200101200E720B2180508E508C3940A4003BD
:1000B200750800E5089000CE93F4F58030B2FDD0CB
:0C00C20007D006D0D0D082D083D0E0322E
:03000000020006F5
:0C000600787FE4F6D8FD75810802004DFB
:100012000200D8E493A3F8E493A34003F68001F22C
:1000220008DFF48029E493A3F85407240CC8C333EF
:10003200C4540F4420C8834004F456800146F6DFBE
:10004200E4800B01020408102040809000EEE47E60
:10005200019360BCA3FF543F30E509541FFEE493B3
:10006200A360010ECF54C025E060A840B8E493A37A
:10007200FAE493A3F8E493A3C8C582C8CAC583CAA5
:10008200F0A3C8C582C8CAC583CADFE9DEE780BE5D
:0100F100000E
:00000001FF
