:100190003F065B4F666D7D077F6F777C395E7940E8
:0501A00038733E000869
:0F01B800E4F589758CE0758A1875A88AD28C22B7
:10017200D3EF9400EE940040147DC8D3ED648094D4
:0D0182008040031D80F5EF1F70E61E80E336
:01018F00224D
:03000E001201B824
:10001100AE08AF097C277D1012011D7E037FE8CF5A
:10002100CDCFCECCCE12011D74902FF58274013E3E
:10003100F583E493750A00F50BAE08AF097C037DE7
:10004100E812011D7E007F64CFCDCFCECCCE120150
:100051001D74902FF58274013EF583E493750C00B5
:10006100F50DAE08AF097C007D6412011D7E007F95
:100071000ACFCDCFCECCCE12011D74902FF5827454
:10008100013EF583E493750E00F50FAE08AF097CD0
:10009100007D0A12011D74902DF58274013CF583D7
:1000A100E493751000F511E4F51AE51A25E0240A28
:1000B100F808E6F580E51AB40800504D9000C4F840
:1000C1002828730200DC0200E00200E80200EC02D2
:1000D10000F40200F8020100020104C2A28002D26F
:1000E100A2C2A3C2A48022C2A28002D2A2D2A3C26F
:1000F100A48016C2A28002D2A2C2A3D2A4800AC244
:10010100A28002D2A2D2A3D2A47F967E0012017253
:0C011100051AE51AC39408409102001181
:03000B000201A54A
:1001A500C0E0758CE0758A180509E5097002050837
:0301B500D0E03265
:030000000201C733
:0C01C700787FE4F6D8FD75811A02000E66
:10011D00BC000BBE0029EF8DF084FFADF022E4CCC6
:10012D00F875F008EF2FFFEE33FEEC33FCEE9DEC8F
:10013D00984005FCEE9DFE0FD5F0E9E4CEFD22EDD5
:10014D00F8F5F0EE8420D21CFEADF075F008EF2F1F
:10015D00FFED33FD4007985006D5F0F222C398FD10
:05016D000FD5F0EA22AD
:00000001FF
